:020000021000EC
:10000000080A116065080160610801605D0801600F
:100010005D0801605D0801605D080160000000008E
:100020000000000000000000000000005D0801600A
:100030005D080160000000005D0801605D0801606E
:100040005D0801605D0801605D0801605D08016098
:100050005D0801605D0801605D0801605D08016088
:100060005D0801605D0801605D0801605D08016078
:100070005D0801605D0801605D0801605D08016068
:100080005D0801605D0801605D0801605D08016058
:100090005D0801605D0801605D0801605D08016048
:1000A0005D0801605D0801605D0801605D08016038
:1000B0005D0801605D0801605D0801605D08016028
:1000C0005D0801605D0801605D0801605D08016018
:1000D0005D0801605D0801605D0801605D08016008
:1000E0005D0801605D0801605D0801605D080160F8
:1000F0005D0801605D0801605D0801605D080160E8
:10010000490701605D0801605D0801605D080160EC
:100110005D0801605D0801605D0801605D080160C7
:100120005D0801605D0801605D0801605D080160B7
:100130005D0801605D0801605D0801605D080160A7
:100140005D0801605D0801605D0801605D08016097
:020000020000FC
:020000041001E9
:10FF800000FAEF7245F5EF723DF5EF7239F5EF7259
:10FF900039F5EF7239F5EF7239F5EF7241F5EF721D
:10FFA00000000000000000000000000039F5EF72C2
:10FFB00039F5EF720000000039F5EF7239F5EF7294
:02000004600199
:100000002DE9F04100261A4B1B88B34224D9184B26
:100010005B6833F81610174B1A780D0ADFF85CE0AE
:100020003EF81580144F15F807C0C9B248000323E5
:1000300083409BB2DC43A4B201208840C0B28A4016
:10004000D2B204EA08010B432EF815302CEA000363
:100050001343EB550136D6E7064B1B7823B9054B06
:1000600001221A70BDE8F081024B00221A70F9E7F4
:10007000C4090160580011601000034120010341D0
:1000800000B583B00D4B93E8030002AB03E9030016
:10009000BDF8003003B9FEE7094B9D682A681C686B
:1000A000596820469047AE6A00231A460549204603
:1000B000B0476B6820469847FEE700BFC40901605F
:1000C0005C09016001000160022800D0704708B59A
:1000D0000249034800F02EFA08BD00BFD4090160B0
:1000E0006000116008B5FFF7CBFF002008BDC0F32A
:1000F00007230B7010707047FF2B0AD010B40478E0
:1001000024EA03035BB291401943C9B2017010BCE9
:1001100070470170704710B44FF6FF74A34207D0C8
:100120000488A4B224EA03031BB29140194389B2A4
:10013000018010BC7047B3F1FF3F08D010B40468D1
:1001400024EA030391401943016010BC7047016029
:10015000704700002DE9F04F85B00C460DF10E02FE
:100160000DF10F01FFF7C3FF9DF80E3003F00305FB
:10017000ED009DF80F0002384000C0B200EB930084
:10018000C0B20126AE400327AF40C4F3812AC4F3B6
:100190004049C4F3C04BC4F301530093C4F38153EB
:1001A00001934FEA800833462A46C4F38041164C37
:1001B00004EB8000FFF7BFFF3B462A465146134839
:1001C0004044FFF7B8FF33462A46494610484044AA
:1001D000FFF7B1FF9DF80F30012B02D005B0BDE84D
:1001E000F08F33462A4659460A48FFF7A4FF3B469C
:1001F0002A4600990848FFF79EFF3B462A46019988
:100200000648FFF798FFE9E7101803411010034173
:100210001014034108200341082403410828034126
:100220002DE9F04F89B00D460DF11E020DF11F01B1
:10023000FFF75DFF9DF81E2002F00304E4009DF827
:100240001FC04FEA4C06F6B206EB9206F6B24FF02C
:10025000010808FA02F30327A74008FA04F89100FE
:10026000072000FA01F10191C5F3812BC5F3404A43
:10027000C5F301100290C5F3C0400390C5F3015EC1
:10028000CDF810E0C5F3815ECDF814E0C5F3026946
:10029000DBB2C5F300411F486044FFF72DFFB500F6
:1002A0003B46224659461C4800EB8600FFF743FFB9
:1002B00043462246514619482844FFF73CFF3B4637
:1002C0002246029916482844FFF735FF4346224646
:1002D000039914482844FFF72EFF3B462246049911
:1002E00011482844FFF727FF3B46224605990F484F
:1002F0002844FFF720FF9DF81F409DF81E20019B1A
:10030000920049460A4800EB8400FFF714FF09B049
:10031000BDE8F08F100203418010034180140341B7
:10032000801C034180200341802403418028034135
:10033000400403412DE9F04F8BB00C460DF126022D
:100340000DF12701FFF7D3FE9DF8262002F00305EB
:10035000ED009DF827C04FEA4C06F6B206EB920678
:10036000F6B24FF0010808FA02F95FFA89F902FAC9
:1003700008F3032707FA03F39BB20093AF4008FA90
:1003800005F8C4F3812BC4F3404AC4F30111019171
:10039000C4F380300290C4F3C0400390C4F3015E04
:1003A000CDF810E0C4F3815ECDF814E0C4F3810E03
:1003B000CDF818E004F0010ECDF81CE04B46C4F374
:1003C000004128486044FFF797FEB4003B462A46A8
:1003D0005946254800EB8600FFF7ADFE43462A4606
:1003E000514622482044FFF7A6FE3B462A46019983
:1003F0001F482044FFF79FFE43462A4602991D48A6
:100400002044FFF798FE43462A4603991A482044A1
:10041000FFF791FE3B462A46049918482044FFF70F
:100420008AFE3B462A46059915482044FFF783FE7D
:100430009DF827409DF82620009B52000699114800
:1004400000EB4400FFF767FE9DF827404B469DF800
:10045000262007990C482044FFF74EFE0BB0BDE85C
:10046000F08F00BF1002034180100341801403414C
:10047000801C0341802C03418020034180240341E0
:1004800080280341200103411000034108B5030CFB
:100490001B042BB911F4803F05D0FFF7C1FE08BD46
:1004A000FFF758FEFBE7FFF745FFF8E738B50546CD
:1004B000EFF31081012383F310881C4B1B6833B9C1
:1004C0001B4A43F204030020D0544020D054174A62
:1004D00013680133136081F3108800242B88A34232
:1004E0000AD96B6803EBC40253F834105068FFF765
:1004F000CDFF0134A4B2F1E7EFF31083012282F3C0
:1005000010880A4A12681AB108490A68013A0A6052
:10051000064A126832B9064943F2040200208854A0
:100520008020885483F3108838BD00BF8400116098
:100530001000034108B5034B03600846FFF7B6FF00
:10054000002008BD54524F500620704706207047C7
:1005500006207047062070470161826143610020D8
:1005600070470000024B1B6803600020704700BF0B
:10057000C00901600020704710B50446FFF7FAFF7C
:1005800010B9A36801221A7510BD10B50446FFF713
:10059000F1FF10B9A36801221A7610BD38B50546DF
:1005A0000C46FFF7E7FF38B9AB681B7CC3F30003C9
:1005B0002371AB685B68236038BD000010B504464A
:1005C000FFF7D8FFF0B9A36801221A766368B3F980
:1005D000123013F1210F13D0002B0BDB03F01F019E
:1005E0005B098A402033084941F82320BFF34F8F2D
:1005F000BFF36F8F6368B3F91220044B43F82240B6
:100600000023236010BD00BF00E100E088001160FE
:10061000C16083681960704770B505460C460B7C55
:1006200003F5851304339B02836041600A7C043226
:10063000012303FA02F212042A49CA61CA69227C20
:10064000934043EA0343284AC2F83435264BD3F893
:10065000B426217C01238B401A42F7D043EA03439E
:10066000214AC2F83438204BD3F8B469217C0123E5
:100670008B401E40F7D1AB6801221A76616828468C
:10068000FFF7C6FFE3691A78012A26D05B78012BB1
:1006900025D0AA68F3B282F82030B4F91230002BCA
:1006A00012DB607C1149CA1882F80003104A42F834
:1006B000235003F01F005B090122824003F1600018
:1006C00041F8202041F8232063692B61A369AB61C5
:1006D00000206861074B2B6070BD0126D6E746F00D
:1006E0000206D6E7600B01410000014100E100E095
:1006F000880011604D54470070B504460D46FFF761
:1007000039FF064608B1304670BD29462046FFF73E
:100710007FFFF8E708B5112000F098F808BD70B524
:1007200005460C46FFF726FF064608B1304670BD69
:10073000EB68A360A868FFF7EDFF6060AB6893F813
:10074000203001232370F1E710B584B0EFF3038369
:10075000C3F30803103B124A52F8234063681B7826
:10076000012B17D023699BB16369BBB193E80700E4
:100770000DF1100C0CE90700A2691A6022691846F5
:100780009047636923B104AA12E9070083E80700D0
:1007900004B010BDA36801221A76E3E701ABEBE7D2
:1007A00088001160024B5A68024B1A60704700BF04
:1007B000000011605C00116010B5154B154A1A60FD
:1007C00015495960154A9A6042F6E062DA6041F2D2
:1007D00070721A615961124A9A611248D86118629E
:1007E000596211489862114CDC62186310485863D2
:1007F000104898631048D8631A645A649964DA649C
:100800000E4A1A650E4A5A65FFF7CCFF10BD00BFAD
:1008100000001160008C864700C2EB0B0065CD1D07
:1008200000E1F50540EFC41F005ED0B2A077E20FF3
:100830008026FE0080B2E60E00B4C4040084D71700
:1008400000366E0108B5FFF7B7FF08BD014B53F83E
:10085000200070470000116000BF704700BE704765
:1008600000BE704708B500F003F8FFF73BFCFEE759
:1008700038B50020FFF728FCFFF79EFF0120FFF7A7
:1008800023FC1248124A121A002100F03BF81148CA
:10089000114A121A114900F028F8114D114BED1AA6
:1008A000AD100024AC4205DA0E4B53F824309847C3
:1008B0000134F7E7FFF776FF0220FFF705FCFFF7AB
:1008C000CBFF002000F010F838BD00BF58001160C9
:1008D000080811600000116058001160DC09016017
:1008E000580011605800116070470A44431E91423D
:1008F00000D1704710B511F8014B914203F8014F38
:10090000F9D110BD02440346934200D1704703F869
:10091000011BF9E74275696C64207769746820529D
:100920005A2F56324C20466C657869626C652053AC
:100930006F667477617265205061636B61676520D3
:1009400076657273696F6E20312E302E3000000094
:10095000312E302E300000000000000168001160D0
:10096000680901608C0901600000000020BCBE0025
:100970000000000000000000020530000000000040
:1009800000000000880901600000000019060160F5
:10099000790501608B050160490501604D05016025
:1009A00051050160F9060160550501601F070160EE
:1009B0009D05016059050160BD0501606505016087
:1009C0000100010104000000CC090160002B022B92
:0C09D0000029012B00000000DC09016080
:1009DC00008C864700C2EB0B0065CD1DE02E00009D
:1009EC007017000000C2EB0B00E1F50540EFC41FCF
:1009FC0040EFC41F00C2EB0B005ED0B2A077E20F39
:100A0C00005ED0B28026FE0080B2E60E00B4C404B4
:100A1C0000E1F50500E1F50500C2EB0B00E1F50581
:080A2C000084D71700366E01AB
:0200000472EF99
:10F44000064A536823F0010305498A60054981F3A0
:10F450008A88126882F388889C4770470000010000
:10F4600000ED02E0080811607047000008B50D4B80
:10F4700002221A600C4A136923F00C031361D3684B
:10F4800023F4C04323F008031B041B0C43F0BF63A9
:10F4900043F40833D360536A43F400235362FFF705
:10F4A000E3FF08BDD0ED00E000ED00E01F4B4FF0A2
:10F4B0000112C3F82C251D4BD3F8AC3613F0010F05
:10F4C000F9D01A4B4FF00112C3F82C28174BD3F880
:10F4D000AC3913F0010FF9D1144B4FF00212C3F8FD
:10F4E0002C25124BD3F8AC3613F0020FF9D00F4B8A
:10F4F0004FF00212C3F82C280C4BD3F8AC3913F0A0
:10F500000203F9D10A49D1F81C2B22F00102C1F8FB
:10F510001C2B07E003F1A001064A4FF0FF3042F830
:10F52000210001330E2BF5D9704700BF00000141C7
:10F530000002024100E100E000BE704700BE7047DB
:10F5400000BE704708B500F001F8FEE708B5094AAB
:10F55000094B9A6000F034F8084B83F30888084B95
:10F5600083F30A88FFF782FFFFF7A0FFFFF768FF2A
:10F5700008BD00BF80FF011000ED00E000FAEF724F
:10F5800000F8EF720A49CA6802F4E062094B1343BB
:10F59000CB60094BD3F8242B12F4007FFAD0064A33
:10F5A000D2F81C3B43F00103C2F81C3B30BFFEE71E
:10F5B00000ED00E00400FA05000202410000000036
:10F5C00001B40248844601BC604700BF45080160A1
:0400000572EFF5851C
:00000001FF
